:020000041000EA
:1000000000B5324B212058609868022188439860DF
:10001000D860186158612E4B002199600221596106
:100020000121F02299502B49196001219960352056
:1000300000F044F80222904214D00621196600F024
:1000400034F8196E01211966002018661A6600F04E
:100050002CF8196E196E196E052000F02FF8012189
:100060000842F9D1002199601B49196000215960AB
:100070001A491B48016001219960EB211966A021F2
:10008000196600F012F800219960164914480160C1
:100090000121996001BC002800D000471248134993
:1000A000086003C880F30888084703B5996A0420EC
:1000B0000142FBD001200142F8D103BD02B5186610
:1000C0001866FFF7F2FF186E186E02BD00000240BE
:1000D000000000180000070000035F00212200005C
:1000E000F4000018222000A00001001008ED00E03C
:1000F00000000000000000000000000074B24E7A12
:1001000000200420F7010010CB010010CD010010E9
:10011000C9010010C9010010C9010010C901001077
:10012000C9010010C9010010C9010010CF01001061
:10013000C9010010C9010010D1010010D301001045
:10014000C1010010C1010010C1010010C101001067
:10015000C1010010C1010010C1010010C101001057
:10016000C1010010C1010010C1010010C101001047
:10017000C1010010C1010010C1010010C101001037
:10018000C1010010C1010010C1010010C101001027
:10019000C1010010C1010010C1010010C101001017
:1001A000C1010010C1010010C1010010C101001007
:1001B000C1010010C1010010C1010010C1010010F7
:1001C000EFF30580103800BE00BE00BE00BE00BECA
:1001D00000BE00BEF2EB8871585400108454001029
:1001E0003802001090A31AE700201E49086006C8D4
:1001F00081F3088810471C480068002801D00020BF
:10020000F3E70DA40ECC002902D000F012F8F9E7B4
:100210001649174A002000E001C19142FCD115495E
:100220008847154988471549884700BEFDE701C939
:1002300001C29A42FBD3704784540010C0000020D2
:10024000581000201C64001000000420000004204E
:100250001C640010001004200010042000000000A6
:100260007047000008ED00E0000000D058100020AA
:10027000841C00200525001081020010FD240010C0
:1002800070B502F037FA1A4C1A49200004F0D8FD74
:100290000321042000F082FB0321052000F07EFBF7
:1002A00000220121042000F091FB00220121052001
:1002B00000F08CFB2000272100F022F800F01AFA51
:1002C0000D4D0E4C0021002000F072FA280000F0C5
:1002D000E7FA0121002000F06BFA200000F0E0FABC
:1002E000FA20400001F0BEFA00F004FAEAE7C04646
:1002F00048100020A0860100F84F001008500010A0
:10030000F0B5F94CF94D85B0206032200026382731
:10031000297001F0A7FA6B460F222978DF73206855
:100320006A440123009604F0B5FD6A463C21D1736E
:100330000F2229786A4401232068009604F0AAFD60
:100340000120002101F018FA6A46D7730F22012319
:100350006A4429782068009604F09CFD0021322030
:1003600001F00AFA052001F07DFA6A46D7730F22E0
:10037000297820686A440123009604F08BFD6A46C0
:100380003C21D1730F2229786A440123206800960A
:1003900004F080FD0120002101F0EEF96A46D773D8
:1003A0000F2201236A4429782068009604F072FD28
:1003B0003220002101F0E0F99620002101F0DCF963
:1003C0006A46D7730F22297820686A440123009671
:1003D00004F060FD6A463C23D3730F2229786A44F7
:1003E00020683B3B009604F055FD0120002101F000
:1003F000C3F96B460F222978DF736A440123206812
:10040000009604F047FD3220002101F0B5F96B465B
:100410000F22103F2978DF7320686A440123009679
:1004200004F038FD6A462C21D1730F2229786A44E2
:1004300001232068009604F02DFD0120002101F029
:100440009BF96A46D7730F2229786A4401232068F2
:10045000009604F01FFD3220002101F08DF96A465C
:10046000D7730F22297820686A440123009604F08C
:1004700011FD6A462C23D3730F2229786A44206821
:100480002B3B009604F006FD0120002101F074F9D9
:100490006B460F222978DF736A4401232068009697
:1004A00004F0F8FC3220002101F066F96B460F22BF
:1004B00060372978DF7320686A440123009604F0CE
:1004C000E9FC6A468C23D3730F2229786A4420689A
:1004D0008B3B009604F0DEFC0120002101F04CF97A
:1004E0006B460F222978DF736A4401232068009647
:1004F00004F0D0FC3220002101F03EF96B460F22BF
:10050000803F2978DF7320686A440123009604F055
:10051000C1FC6A460C21D1730F2229786A44012359
:100520002068009604F0B6FC0120002101F024F9B7
:100530006A46D7730F2229786A44012320680096FF
:1005400004F0A8FC3220002101F016F96946C82207
:10055000CA73B93A297820686A440123009604F0E6
:1005600099FC6946CC230F22CB736A442978206812
:10057000CB3B009604F08EFC0120002101F0FCF83A
:100580006946C822CA73B93A29786A4401232068A7
:10059000009604F07FFC3220002101F0EDF86A465D
:1005A000D7730F22297820686A440123009604F04B
:1005B00071FC6A460C21D1730F2229786A44012309
:1005C0002068009604F066FC0120002101F0D4F8B8
:1005D0006A46D7730F2229786A440123206800965F
:1005E00004F058FC3220002101F0C6F8694668206A
:1005F0000F22C8736A44297820680123009604F00A
:1006000049FC69466C230F22CB736A442978206821
:100610006B3B009604F03EFC0120002101F0ACF899
:1006200069466822CA73593A29786A4401232068C6
:10063000009604F02FFC3220002101F09DF86A465C
:10064000D7730F22297820686A440123009604F0AA
:1006500021FC6A460C23D3730F2229786A44206850
:100660000B3B009604F016FC0120002101F084F8F9
:100670006B460F222978DF736A44012320680096B5
:1006800004F008FC3220002101F076F86B460F22BE
:1006900010372978DF7320686A440123009604F03C
:1006A000F9FB6A461C23D3730F2229786A44206819
:1006B0001B3B009604F0EEFB0120002101F05CF8EA
:1006C0006B460F222978DF736A4401232068009665
:1006D00004F0E0FB0021322001F04EF8022001F08E
:1006E000C1F805B004E0C046241C00207F1C002097
:1006F000F0BDC046F0B585B0002408276B460F2238
:10070000294E2A4D3178DF7328686A44012300940A
:1007100004F0C0FB6A460C23D3730F2231786A447D
:1007200028680B3B009404F0B5FB0120002101F088
:1007300023F86B460F223178DF736A44012328685F
:10074000009404F0A7FB3220002101F015F86B465D
:100750000F2210373178DF7328686A440123009430
:1007600004F098FB6A461C23D3730F2231786A4445
:1007700028681B3B009404F08DFB0120002100F051
:10078000FBFF6B460F223178DF736A440123286830
:10079000009404F07FFB0021322000F0EDFF0220E6
:1007A00001F060F805B0F0BD7F1C0020241C002083
:1007B000F0B5C64600B5374A86B00B1C002900D0FC
:1007C0000123DBB2D65C0F238619F6B232007825FE
:1007D0000F2400279A4302ABE4182F482F4B6D4299
:1007E0001543804619782570039202932200012355
:1007F0000068009704F04EFB7423039A5B42134396
:1008000042462370029B106819782200012300974A
:1008100004F040FB0120002100F0AEFF4246029BA5
:1008200025701978106801232200009704F032FB2C
:1008300008253220002100F09FFF4246029B36012E
:10084000354319781068257022000123009704F0C1
:1008500021FB0C231E4343462670029E2200317862
:1008600018680123009704F015FB0120002100F017
:1008700083FF4346317822001868257001230097D2
:1008800004F008FB3220002100F076FF06B080BCA7
:10089000B846F0BDA0510010241C00207F1C002091
:1008A000F0B557464546DE464E46E0B505788246E9
:1008B00085B0002D67D0374B374F98463B000F244B
:1008C0004746002698466C4401230F229A442B0089
:1008D0009343994609234A46134323709B46434654
:1008E0003978186822000123009604F0D3FA4B46A9
:1008F0000D221343237043462200397818680123E0
:10090000009604F0C7FA0120002100F035FF5B4695
:10091000237043462200397818680123009604F0BA
:10092000B9FA3220002100F027FF09232D012B43C3
:1009300023709946434639781868220001230096AF
:1009400004F0A8FA0D2243461543397822001868AE
:1009500025700123009604F09DFA0120002100F08B
:100960000BFF4B4623704346397818682200012359
:10097000009604F08FFA3220002100F0FDFE53466D
:100980001D78002DA0D105B0F0BCBB46B246A946EB
:10099000A046F0BD7F1C0020241C002010B5402480
:1009A000074A83009A181268C0005440C0222240AF
:1009B000044C1B191A60044BC018416010BDC0469E
:1009C00004C0014004D0014000400140064B8000BB
:1009D000C3181B68C90092000A435A400C231340F5
:1009E000024A80180360704704C0014004D00140EF
:1009F0008023DB051868000F7047C0460FB400B5B0
:100A0000084883B001F0C8FE049B002B07D005A95D
:100A10001800019101F056FD034801F0BDFE0120D0
:100A200001F068FD185000101450001070B58C468D
:100A30001600EFF3108472B60F490B68002BFCD040
:100A4000BFF35F8F6346DB08C5180722C05C6346AF
:100A50001A40012393401A000240034207D1184371
:100A60002870BFF35F8F0A6084F3108870BD614601
:100A70003000FFF7C3FFC0462C0100D0F8B5CE46CA
:100A800047468C4680B51C00EFF3108872B61C49AF
:100A90000B68002BFCD0BFF35F8FA24221D8072345
:100AA000994602E00132944218D34946012611408A
:100AB0008E40D308C718C35C1E42F3D110003343E5
:100AC0003B70BFF35F8F00220D4B1A6088F31088D4
:100AD00000280EDBC0BCB946B046F8BD012040423C
:100AE000EFE7BFF35F8F00230B6088F310880120CE
:100AF00040426346002BEDD00898FFF77FFFC046C9
:100B00002C0100D0044A1078431CDBB2172B00D90B
:100B1000102313707047C046400F002000B5054BEE
:100B200083B00100009318221F230348FFF7A6FF9C
:100B300003B000BD28500010BC1700200021044B5A
:100B4000044ABFF35F8F02C39342FAD17047C04695
:100B5000000100D0800100D0084B094A1360094A07
:100B60001360094A1360094A1360094A1360094A6D
:100B70001360094A1360094A1360704780808080BF
:100B800000E400E004E400E008E400E00CE400E03D
:100B900010E400E014E400E018E400E01CE400E0ED
:100BA0001F2318401E3B8340002905D0C021044A62
:100BB0004900535013607047802201498B50FAE777
:100BC00000E100E001228240034B1B6813405A1EE3
:100BD0009341D8B27047C04600E100E00123834052
:100BE000014A13607047C04600E200E0054B103038
:100BF0009B688000C358044A00209B1A47229A42EF
:100C00004041704700ED00E0440F002010B5EFF3C5
:100C1000108C72B60F4A1368002BFCD0BFF35F8FA5
:100C20000D4B10309B6880001B580C4A934201D03A
:100C300099420CD1084B9B681950BFF35F8FBFF3EB
:100C40005F8F0022034B1A608CF3108810BD01F0F7
:100C500001FAC046240100D000ED00E0C1010010FF
:100C6000F0B5DE4657464E464546E0B58B4685B064
:100C7000EFF3108872B616005B4A1368002BFCD0A5
:100C8000B246BFF35F8F002558494D57002D00DA5B
:100C9000A8E06B00564A01935B199B00D418A77912
:100CA00010300F7053498000896884460F58B91A74
:100CB000472933D8012039008143CE79564500D8E1
:100CC0006AE0A1465646039307E05800C01880002A
:100CD0001018C479B4424DD901000623CB56002B1D
:100CE000F3DA081D4C46B24681460293424B4E460B
:100CF000043CA41B2405414E640D34438C808D714B
:100D000001994919890052189380029B3C499371BB
:100D10005346D3715B461160936017E039498F42A7
:100D200060D139490127D15238490233D3180439E7
:100D3000CB1A324A1B055B0D13436380344BE671BB
:100D4000A380FF23A3715B462743A3606246294B20
:100D50009B689F50BFF35F8FBFF35F8F0022224BD2
:100D60001A6088F3108805B0F0BCBB46B246A946AD
:100D7000A046F0BDB2460E1D4C46B146888802938F
:100D8000039B4005001504334844D318C31A1B05C0
:100D90001A485B0D0343AAE79E1CB14691444E4698
:100DA0000F001C4DBF1A7F417D432D0D164FA571BD
:100DB000D752164F0433043FD318BF1BCB1A3F053D
:100DC000043B7E0D1B050D4F5B0D3E431F435346F9
:100DD000E3715B46A3600A4BA7806680044327004B
:100DE0000B60B3E701F036F9240100D07D1C002030
:100DF000440F002000ED00E001BD000000E0FFFF17
:100E000001488047C101001000A1FFFF8C0F0020A6
:100E100001BDFFFFAAAA0000F0B5DE4657464E46C8
:100E20004546E0B583B0EFF3108972B65D4A1368AA
:100E3000002BFCD0BFF35F8F5B4B5C4E9A680300C6
:100E400010339C0012599846B2423BD08A424CD093
:100E5000574FBC46D71B472F34D8564B1F271D680A
:100E60000740AA460125BD4080270195DD51BFF30B
:100E70005F8FEFF30585AB46002D38D101231D00B0
:100E80008540280055460540100098438768AA46CB
:100E9000B94208D17CE073009B199B0063449F68B2
:100EA000B9422DD0180006268657002EF3DAB94233
:100EB0004CD05346002B1ED0C0213E4B0198490018
:100EC00058501860384B9B681A51BFF35F8FBFF3BF
:100ED0005F8F0022334B1A6089F3108803B0F0BC97
:100EE000BB46B246A946A046F0BD3200EAE7A84597
:100EF000C4D001F0AFF880232E490198C850E1E733
:100F00000627DF57002F22DB7900C81985002E0045
:100F10006644B0689860F079D871062030569871B0
:100F2000002826DB6046B688C01A76053615761985
:100F300080190005204E400D30439880CB191F4981
:100F40009B000878634498710F70B2E7030059461C
:100F5000002910D1FF3181711949818017486546F8
:100F60000178997117495B1B5B415943090D017069
:100F70009FE71348E1E714491448C91A08394E029B
:100F8000760D30439880124849080143D98090E794
:100F90000627C7570300002FB6DA59460029EAD1C1
:100FA0003200DBE7240100D000ED00E0C1010010B9
:100FB000440F002000E100E000E0FFFF7D1C002066
:100FC00001BDFFFFAAAA0000960F002000F0FFFF5E
:100FD00000F8FFFF0123034370B59C46EFF3058142
:100FE000EFF3108572B6274A1368002BFCD0BFF3CD
:100FF0005F8F254A0400254BA41A644163431B0DEF
:10100000234C8900A6685BB27658664524D0062139
:101010005156994224D01221515699422AD01E216C
:101020005156994228D02A215156994226D036212C
:101030005156994224D0422151560524994210D04C
:10104000144A117813708171BFF35F8F00220D4B2A
:101050001A6085F3108870BDA2680F4C5450EFE7FA
:1010600000246100091989005218FF2191710B4970
:101070009180E5E70124F4E70224F2E70324F0E796
:101080000424EEE7240100D0440F0020AAAA0000A7
:1010900000ED00E07D1C0020C101001001BDFFFF3C
:1010A00000B5074B83B001000093002205230548DB
:1010B000FFF7E4FC002801DB1F23181A03B000BD72
:1010C00044500010821C0020024BC91889000160A6
:1010D0007047C0464000003470B5114C114DAC4211
:1010E0000FD2FF262368002B0CD0FFF70BFD010069
:1010F0002000FFF7E9FFA680BFF35F8F0834AC4202
:10110000F0D370BDFFF7FEFC01002000FFF7DCFF0D
:101110002671BFF35F8F0834AC42E3D3F1E7C046DA
:10112000501000205810002010B50400FFF7EAFC12
:1011300001002000FFF7C8FFFF232371BFF35F8F7B
:1011400010BDC04610B504000120FFF7E7FC034BBB
:10115000C01880002060BFF35F8F10BD40000034D6
:10116000034BC91889000160BFF35F8F7047C04609
:10117000400000340A4B1968EFF3108072B60A6819
:10118000002AFCD0BFF35F8F1B68BFF35F8F002284
:101190001A6080F3108840BF002000217047C046CD
:1011A000541C0020F0B5DE4657464E464546E0B595
:1011B00085B0EFF3058303221A40B34B91005F58CB
:1011C000012393409B4602925A468846AF4B1A60D1
:1011D000AF4B03935B46AF4843630823FE5E002E8C
:1011E00037DABB881BB2002B00DBA4E0BB79002BF5
:1011F00000D0E5E00823F95E002920DB4B007A6986
:101200005B18DB00D3189D68DC686B1C00D104E11F
:10121000A04801004144826A0B69AE1A9B1A9E42A3
:1012200015D30123026A029883401A420FD09948CD
:1012300000F036FC8C4202DCCCD18542CAD940BFDA
:1012400005B0F0BCBB46B246A946A046F0BD0D6154
:10125000EDE77A69730091469B19DB0099444B4690
:101260009C68DD6800F01CFC8D42BADC00D1F6E021
:10127000002D00DADBE04A464B4652691B69924674
:10128000039A934200D1CCE04A460821785E528806
:101290000004514610439847009001910099019A2B
:1012A0000B00134300D1C2E013000A00002B00DB47
:1012B000D9E020002900801A99414B469860D960F6
:1012C00000229B5E002B00DA8BE75D007C69EA1848
:1012D000D200A21800949468D268A2468A4200DD27
:1012E0007FE702D1844200D97BE70824A4463B81F2
:1012F000BC44009C00972F006546B4463E0006E0C3
:101300005E00F218D200A2189768D268BA468A42E4
:1013100007DC00D1B4E0F318DB00E518E35E002B36
:10132000EEDA66464A46009F13802E80BB881BB2C9
:10133000002B00DA5AE73A69EFF3108172B61368AE
:10134000002BFCD0BFF35F8F0123BE885B42BB80C4
:1013500036B23B69BFF35F8F00221A6081F31088B9
:10136000002E00DA42E73B0008333A0099467D69D7
:1013700073009B190824115FDB004846EB18002915
:1013800013DB9C680093A446DC6806E0A34240D0CF
:101390000023F95E3800002906DB4F007F18FF00AC
:1013A000EF19FB68A342F1DD009B068000201E5E62
:1013B0001980002EDCDA1700BB79002B00D119E769
:1013C0000023BB710823F95E4B1C00D137E73D00B9
:1013D0000835AC467C6903E084464B1C00D109E724
:1013E0004B005B18DB00E0180A00E15E43881BB28B
:1013F000002BF1DA01256D42EE178560C6600825E5
:101400007B5F9342E9D0634619803B8903803A8130
:10141000E3E7BB686345BBD9C6E7631C00D0F7E6CA
:1014200005E7534650461B699847002823D14B4691
:101430001B883A693B81EFF3108372B6116800296B
:10144000FCD0BFF35F8F49467A880A803A697E8074
:10145000BFF35F8F0021116083F31088C1E68442DF
:1014600000D805E7BDE60B4800F01AFB009B019C85
:10147000C018614121E753460CCB009201930DE760
:10148000824500D847E74CE7381C00203C700540F7
:10149000A51100100040054070B52D4C2569002DA8
:1014A00004D00A212B48FFF70FFE70BD2A4E0321FE
:1014B000294800F0EBFAE660FFF724FB274B0322F4
:1014C000C018D02322701B061B6801216370244BB7
:1014D0008000A3600F23206102206380636949427A
:1014E000A18019800231198647311D835852183165
:1014F0005A5275325C399952183201319952183268
:1015000001319952183201319952083518329D52E1
:101510000231183299521832013199521832013180
:1015200099521832013199521832013199521832B8
:10153000013199520B4B0C49DC6001303562FFF7E9
:1015400065FB01210320FFF72BFB084B1D60A8E77B
:10155000B00F0020541C0020004005404000003423
:10156000FFFF1000381C0020A51100103860054056
:1015700000487047B00F0020F8B51F0008AB1B787B
:1015800004001600002B07D100F092FA32003B0055
:10159000121A8B41002B51DB2269EFF3108C72B6CB
:1015A0001368002BFCD0BFF35F8F0223E15E256937
:1015B00000293ADB4B0060695B18DB00C218C35A94
:1015C0006380BFF35F8F00232B608CF31088069B32
:1015D0009660D7601361079B5361538801335B04A6
:1015E0005B0C181C002B1ED083B2508008041843DB
:1015F0002569EFF3108672B62B68002BFCD0BFF381
:101600005F8FA3881380A1802369BFF35F8F0022BF
:101610001A6086F31088237801329A400849E368FB
:101620005B181A60F8BD0120DEE7BFF35F8F00236F
:101630002B608CF3108801204042F3E70020F1E793
:101640003C20000070B582B0009201930100026955
:10165000EFF3108472B61368002BFCD0BFF35F8FDA
:101660000223C85E0D6900283FDB4A69430016006B
:101670001B18DB00D218F35A4B80BFF35F8F002397
:101680002B6084F31088069B1361079B5361009BBA
:10169000019C9360D460538801335B045B0C1D1C78
:1016A000002B20D0ACB20304558023430D69EFF327
:1016B000108C72B62C68002CFCD0BFF35F8F8C8826
:1016C000148088800A69BFF35F8F002010608CF35C
:1016D00010880A7801309040CA6808495218106092
:1016E000180002B070BD0125DCE7BFF35F8F002357
:1016F0002B6084F31088013BF2E7C0463C200000D9
:1017000010B543890A1493421ADD53009B184269AD
:10171000DB00D3180469EFF3108C72B62268002A3C
:10172000FCD0BFF35F8F5A88090494B2090C8A4237
:1017300008D00369BFF35F8F00221A608CF3108812
:10174000002010BD094A22435A8001230269837197
:10175000BFF35F8F002111608CF310880278044979
:101760009340C268012052181360EAE70080FFFF2F
:101770003C20000040787047F0B5C64600B582B006
:1017800004000D0000F094F924184D41002D02DAF8
:1017900001242F4D644206267642F71736196F4111
:1017A000AF4214D811D000F083F932003B00121A76
:1017B0008B41002B15DC002B46D02000290000F0C7
:1017C000B7F902B080BCB846F0BDA642EBD90026FE
:1017D000002700F06DF932003B00121A8B41002BFC
:1017E000E9DD00F065F932003B00121A8B41002B55
:1017F0000ADB00230193174B3200009316483B008D
:10180000FFF720FF0130D8D000233900B0469C46B6
:10181000124A1348536A994204D8966A4645CCD274
:101820009942CAD10668EFF3108772B63368002B6D
:10183000FCD0BFF35F8F0368BFF35F8F66461E6007
:1018400087F3108820BFE5E7002AB6D0C9E7C04675
:10185000FFFFFF7F75110010B00F00200040054012
:10186000541C0020F0B5C64600B582B0040000F05C
:101870001FF9FA2206000F00200000230021920029
:1018800000F0A0FD8019794104000D1E02DA012448
:101890002E4D644206267642F71736196F41AF4245
:1018A00014D811D000F004F932003B00121A8B4119
:1018B000002B15DC002B46D02000290000F038F961
:1018C00002B080BCB846F0BDA642EBD90026002786
:1018D00000F0EEF832003B00121A8B41002BE9DDDC
:1018E00000F0E6F832003B00121A8B41002B0ADBB5
:1018F00000230193164B3200009316483B00FFF77C
:10190000A1FE0130D8D000233900B0469C46124ACF
:101910001248536A994204D8966A4645CCD29942F5
:10192000CAD10668EFF3108772B63368002BFCD07B
:10193000BFF35F8F0368BFF35F8F66461E6087F358
:10194000108820BFE5E7002AB6D0C9E7FFFFFF7F78
:1019500075110010B00F002000400540541C0020FD
:10196000F0B5CE46474680B504000D0085B0EFF3D4
:1019700005838946002B32D1404E336883422AD0FA
:101980003F4FFB683A7898461800039200F088F8B9
:10199000039A131D42469B009B5822001B1A9C462B
:1019A0002B00121A8B411900002310008B4225DCFA
:1019B00022D020BF334B586A48452BD3401B9A6A2C
:1019C000431E98410023A2425B41184305B0C0BCAE
:1019D000B946B046F0BD73688B42D1D1E9E72949D9
:1019E00000204B6AAB42F1D38A6A5B1B591E8B41C4
:1019F000A24240411843E9E78445DAD900F058F89B
:101A000022002B00121A8B41002B05DA1D4A536A63
:101A10004B4529D20020D9E7002301931A4B22001D
:101A2000009338002B00FFF70DFE0028EEDD154B6C
:101A300030C65A6A4A4515D39B6AA34210D30100A7
:101A40003800FFF75DFE0F4A0020536A4B45BDD3B7
:101A5000926A5B1B591E8B41A24240411843B5E775
:101A60004A45ECD120BFEAE70020926A5B1BA24204
:101A700040415A1E93411843A8E7C046A80F0020D2
:101A8000B00F0020004005407511001010B5024A4B
:101A90000248FEF7CBFF10BD60500010C0170020B9
:101AA0000300416A0A00986A596A8A42FAD170476B
:101AB000034B596A0A00986A596A9142FAD17047F1
:101AC0000040054070B505000E00184A536A190021
:101AD000946A536A8B42FAD1200019002C00350019
:101AE00024184D41AB4216D813D0104B2A005B6A24
:101AF0009D4203D90D494B6A9342FCD3934207D1CF
:101B00000A4A02E0516A994202D1916AA142F9D38C
:101B100070BDA042E9D9054B5B6A1C005A1CEFD08E
:101B2000012201246442E5175242E3E700400540E8
:101B3000064A536A9942FCD807D1044B02E05A6A1C
:101B4000914202D19A6A9042F9D87047004005400C
:101B5000F8B5040006200D0000F06EF9002843D00F
:101B6000364B3749E3185A1E934180225B429B0D46
:101B700012049B059B18334A1360334A1360180004
:101B80000A689043FBD12D4B304AE31859424B4130
:101B900080215B0049000620995200F04DF9290090
:101BA000C00000F081FB0130C3091ED14027012293
:101BB0006262A362266BF30722D4E36A244B0620F9
:101BC000E51800232B60266300F036F93900800009
:101BD00000F06AFB7023E26A5A400E3313402B6018
:101BE0001C4B23630323A364F8BD1B4A93421DD9F6
:101BF00000231A4A1A4F6262A362266BF307DCD5F0
:101C0000184B144AE3181A60656AA36A0620AD01EE
:101C1000ED1800F011F9144900F046FB0100A8028C
:101C200000F042FB0021FFF74DFFC6E740069A0196
:101C3000800E17181A000300BAE7C0460080FCBFE8
:101C400008C0004000E0004000F00040601C0020A0
:101C50002C10000001030000FEFF0000FFFF000049
:101C6000C0FF3F00303000004E0E0000F8B5DE46E9
:101C70004E4645465746E0B505008B4618000A9982
:101C8000914600F011FB0A9B6C001E026419304B58
:101C9000A400E418636880469E4200D966602F1F46
:101CA000FBB29A46012B2FD9C0238022294FAD00C9
:101CB0009B0179591201E3181A6000291BD14B4688
:101CC00022685B015340E022134080225201A21897
:101CD00013605346012B2FD9802380229B01E318E8
:101CE00012011A60434666607B51F0BCBB46B246A7
:101CF000A946A046F8BD786900F0D6FA0130430045
:101D00001B18033BFDD2DAE75B46012BCCD1C02385
:101D100003229B01E3181A60023AA3681A42FCD01E
:101D20004A46236852015A40E02313408022520160
:101D3000A218084F1360AD005846032321684140A4
:101D40000B40136001228240A3681A42FCD0C3E713
:101D500000800040C4170020F0B5D6464F464646E6
:101D6000440098462418324BA400E41863688A465D
:101D70009146C0B5FF2B02D880235B006360061F2D
:101D8000F6B2012E2FD9C02380222A4F85009B0155
:101D900079591201E3181A6000291BD14B462268B9
:101DA0005B015340E022134080225201A2181360CD
:101DB000012E30D9802380229B01E31812011A6082
:101DC00080235B00636043467B51E0BCBA46B1466A
:101DD000A846F0BD786900F067FA013043001B188F
:101DE000033BFDD2DAE75346012BCCD1C0230322BB
:101DF0009B01E3181A60023AA3681A42FCD04A46D3
:101E0000236852015A40E023134080225201A21855
:101E1000084F1360850050460323216841400B4062
:101E2000136001228240A3681A42FCD0C2E7C04678
:101E300000800040C4170020014B8000C05870474C
:101E4000C4170020F0B5C646040000B523481600AC
:101E500098460D0000F028FA0100300000F024FA46
:101E60004346069A1B04120313439C46236806004C
:101E7000002B22DB1A4B1B48E218531E9A41802389
:101E80005242120B9B011203D218174B1A60174BC8
:101E90001A60130001688B43FBD12122144B25608B
:101EA000E318A6601A602268002AFCDA6246E26043
:101EB00008221A6080BCB846F0BD3F232268134058
:101EC000AB42D7D1A3681B051B0D8342D2D1EE22B2
:101ED000E368D20213406345CCD1EBE7001BB700A7
:101EE0000040FDBF08C0004000E0004000F000409E
:101EF0000430000010B580241C4BE4051C60002851
:101F00001AD001231A4C18431A4BDC611A4C444076
:101F10001C62596298628021144BC90519601748E8
:101F200017490860E021C9041960002A07D18022FE
:101F3000144B12061A6010BD0E4BD861EBE753012B
:101F40009B1A9B009A18802312015B049A4209D2C3
:101F500013000D490B60074B5A608022094BD205D4
:101F60001A60E8E7094B1A00F3E7C04600B00540E5
:101F7000D3C007B0008005402D3FF84FFCFF0100A3
:101F80000820014000A00540281C0020FFFFFF00A2
:101F90008023024A9B000B43D362704700800540B8
:101FA000002310B50100988A1B8B984710BDC046CE
:101FB000162310B5010018885B88984710BDC046ED
:101FC000F8B54746CE4680B50F1E18D01423994663
:101FD000043304000025012698464B4618884346E2
:101FE00021681B88984701C4431E9841013506406B
:101FF000AF42F2D13000C0BCB946B046F8BD0126B0
:10200000F8E7C046002370B504000D00988A054922
:102010001B8B984703000020002C01DB0130A040FF
:102020002900984755420000AA23064A1B01136065
:102030008D235B00D3600449044B19605368002B67
:10204000FCDA70470040024000B0FA000060024035
:102050007047C04610B50148FEF7D0FC8450001010
:1020600070B5074D074EB54209D20024013E761BDC
:10207000B608013608CD01349847B442FAD170BD94
:10208000B84F0010F44F0010054B064A06491A607D
:10209000064A074B1A6010000B689843FBD1704743
:1020A00000E00040BFCDFBFE08C00040FE7F3C00CA
:1020B00000F00040044BDB6C002B03D18022034B6B
:1020C000D2021A607047C046000011504C201150D7
:1020D000044A054B1A60054A1368DB018033FBD1C3
:1020E0007047C046FFFFFF0100F0004008C00040FD
:1020F0004022034B9A675A671A67DA667047C046F0
:1021000000F0014010B5FEF719FD10BD70B527496C
:10211000274E284D761AB4082200302C00D93022E0
:102120002800920000F0C0F92F2C3BD823002A3B56
:10213000214A052B1BD93020AE197107001B260040
:10214000CB0F002902DAA1006A50661CC01AE318FE
:102150009B004108EB18C900C9181A605A6008337F
:102160008B42FAD1012303421CD098438419A30067
:10217000EA50631C2F2C15D09B00EA50A31C2E2C78
:1021800010D09B00EA50E31C2D2C0BD09B00EA5092
:10219000231D2C2C06D09B00EA50631D2B2C01D054
:1021A0009B00EA50054B9D6070BDC04600010010C9
:1021B000C001001000000020C101001000ED00E08F
:1021C000002310B5294C82B0A367FFF72DFF012231
:1021D000274B1A60636C012BFCD10322254B1A603C
:1021E000224A936B012BFCD1013300930121224A37
:1021F00022480433FFF726FE052301210093204ADD
:102200002048FFF71FFE0022022104201E4BFFF78B
:10221000A3FD0022012105201C4BFFF79DFD00229C
:10222000002107201A4BFFF797FD0022002108200C
:10223000174BFFF791FD8023DB0000930022002164
:102240000920134BFFF712FD0022104B002106203E
:10225000FFF782FD0420FFF7EFFD0E4900F024F8A0
:1022600001000020FFF794FE02B010BD0080004086
:102270003CB0004030B00040002F68590080024060
:10228000008C864700C00240001BB700405973070E
:10229000006CDC0240420F0001480421014B18474A
:1022A000D00F0020C11F0010114A936F9B0813D25A
:1022B00010665166002905D0FFE7FFE7FFE7516F81
:1022C000106F704704B5002801D00020C04302F011
:1022D00063FE002104BDC046F0B5146E556E576F05
:1022E000166FFFF7E5FF1466556657671667F0BD72
:1022F000000000D0132370B51D78012D19D014DD16
:102300001F48FFF755FE06001E48FFF751FE1E4C02
:1023100080223100200000F0C7F8022D2DD01B488C
:10232000FFF73EFE1A4B186070BD1A4B164CA364A3
:10233000F5E7184B144C23606360A360E3602361EE
:102340006361A361E36123626362A362E362236367
:102350006363A363E36323646364A364E364236547
:102360006365A365E36523666366A366E366236727
:102370006367A367E367A364D1E7064BA364CEE773
:102380005344000053460000A81200204C330000C4
:10239000501C00209923001007B5604601880A0AE6
:1023A0000230DF2AFAD1C9B2820804D302884088F9
:1023B0000004104300E00068014A5050039007BD3C
:1023C000A812002051434343C9188C46110C83B214
:1023D0004B4310B4040C614392B280B25043624349
:1023E0001C041B0C001910BC59411304120CC0181A
:1023F0005141614470470000132310B51C78134805
:10240000FFF7D6FD012C0BD004DD0100802210481F
:1024100000F04AF80F48FFF7C3FD0F4B186010BDDE
:102420000B4C01005422200000F03EF80B4B63657A
:10243000A365E36523666366A366E3662367636754
:10244000A367E3672362E361E4E7C0465346000005
:10245000A81300204C330000501C00206124001001
:1024600007B5604601880A0A0230DF2AFAD1C9B2EC
:10247000820804D3028840880004104300E000680A
:10248000014A5050039007BDA813002001480421C1
:10249000014B1847E00F0020C11F0010014B1B68C3
:1024A00018470000E00F0020014B5B681847000050
:1024B000E00F002010B5002800D110BD00F022F977
:1024C000FBE7C04610B5094A0300146884B0002C2D
:1024D00008D0012200910648524203A9A0470120DA
:1024E00004B010BD00F058F90020F9E7201C0020CE
:1024F000B524001000BEFDE77047C04610B5FFF7D9
:10250000F9FFC04670B5FFF7ABFD074D074EB5426A
:1025100009D20024013E761BB608013608CD0134ED
:102520009847B442FAD170BDF44F0010F84F001034
:10253000030010B5080011001B68984710BDC04685
:10254000F8B5437D07000D001600002B38D0002A97
:102550001ADD0B780A2B18D00020012E09D0012497
:1025600021006B5C01340A2B1AD0B442F8D18642A8
:1025700003DD311A3B6828189847AD19013D2B78C7
:102580000D3B5A4253413B75F8BD037D002BE3D10F
:1025900002210E483B689847012EEED00120DEE76D
:1025A0006B1E5B5C0D2BE0D0884203DA091A3B6896
:1025B00028189847054802213B6898472000D4E72F
:1025C0000368110028009847DEE7C046F851001064
:1025D000F0B54646D6464F46C0B582B090461C0080
:1025E00006000D00FFF764FA00232F4A12184B4132
:1025F000002B02DA01222D4B52422D4908008A4657
:1026000002F082FC81466B1C03D1300002F04CFCCE
:102610000500002C27D0274F274B1C68002C18D012
:102620004346002B21D1254B984602E02469002C1B
:102630000FD02368002BF9D043461B68002B01D034
:102640009C42F3D120002A003100B8472469002CB5
:10265000EFD14B46002B23D1280002B0E0BCBA4694
:10266000B146A846F0BD164FD6E7144B984602E097
:102670002469002CEDD02368002BF9D043461B6859
:10268000002B01D0A342F3D12A0031002000B8472B
:102690006B460A222000DA71D91D093AB847E7E7EC
:1026A000504602F059FCD7E740420F00FFFFFF7F82
:1026B0005010002041250010141800201C18002084
:1026C000312500100A4A1368002B05D10CE01A00CE
:1026D0001B691032002B07D08342F8D1002902D1A8
:1026E00018691060196170470029FCD01060FAE782
:1026F0001418002010B500F039F900F0EDFA0120AF
:1027000010BDC046F0B5CE46474680B583B06B4697
:102710000600DD1D2870FFF7CBF90023194A1218B7
:102720004B41002B02DA0122174B52421749080095
:10273000894602F0E9FB164B80461C68002C14D039
:10274000144F02E02469002C0FD02368002BF9D02D
:102750003B68002B01D09C42F4D1200001222900CB
:10276000FFF7EEFE2469002CEFD14346002B05D184
:10277000300003B0C0BCB946B046F0BD484602F0D8
:10278000EBFBF5E740420F00FFFFFF7F50100020FA
:10279000141800201C18002070B5040002F084FBFF
:1027A00001230100050001222000FFF711FF084B63
:1027B0001C68002C06D06368002B05D0984724695C
:1027C000002CF8D1280070BD2469002CF3D1F9E762
:1027D00014180020F0B5002915DD0E4B0D271A68DE
:1027E0000D4B0E4CD3185D426B41451820215B0008
:1027F0001E5F0478A64207D093691942FCD10130CC
:102800001460A842F5D1F0BD93691942FCD117605C
:10281000F2E7C046641C00200080FCBF601C002062
:102820001F4B30B51B680D1E9C462ADD441E10212F
:1028300000201C4B1A689369194214D10130936926
:102840001942FCD1136823548542F4D16346002B0E
:1028500007D050239363516B183B0B401249521819
:102860001360280030BD6346002B07D050239363CC
:10287000516B183B0B400C49521813600028F1D1E2
:102880000BE0002B09D05022064B1B689A63596B52
:10289000183A0A4004495B181A6003204042E1E7F5
:1028A000AC170020641C002034100000064B10B54B
:1028B0001B68002B06D00021044A12689163044A69
:1028C0001068984710BDC046AC170020641C00205B
:1028D000B41700200822034B19688B691A42FCD1F7
:1028E0007047C046641C002070B51A4E1A4B3268FF
:1028F0000400D31858424341184D143318002B6874
:10290000002C02D0002B0FD070BD002BFCD0060095
:1029100000219463FEF744F930001149FEF77CFA78
:10292000104B2C601C60EFE72C6004000D4B19600D
:102930000B49FEF76BF901212000FEF731F9502217
:1029400033689A63596B183A0A4007495B181A6052
:10295000DAE7C046641C00200080FCBFAC170020F2
:10296000AD280010B4170020341000000D4B10B536
:102970001B780D4B0D4C1B780D4B02211B780D4B1A
:1029800000202360FEF70AF802210120FEF706F876
:10299000E12120684902FFF7DBF801210648FFF733
:1029A00091FE10BD7C54001078540010641C00206F
:1029B0007454001000400340F00F0020024B1860D8
:1029C000024B19607047C046B0170020B8170020AE
:1029D00010B5024B1878FEF701F910BD801C0020DD
:1029E000154B70B51A68002A22D0EFF3108172B629
:1029F00010680028FCD0BFF35F8F00200F4A596099
:102A000010701B68BFF35F8F186081F3108800247B
:102A100000250B4E3078FEF7D5F8002804D10024AD
:102A200000252900200070BD3078FEF7D7F8F8E7C0
:102A3000FA240025A400ECE7301C0020811C0020B3
:102A4000801C002070B5050000200E0001F078FB0E
:102A5000002834D0002001F089FB00282FD0FFF798
:102A600027F80023174A12184B41002B16DB164C8F
:102A7000200002F049FA002821D0002001F060FB7C
:102A800000280FD101200021404200F089FD0325DC
:102A90006D42200002F060FA280070BD01220B4B4D
:102AA0005242E4E7002001F061FB0028EAD029004F
:102AB0003200002001F064FB051EEAD1E7E70325A0
:102AC0006D42E9E740420F00581C0020FFFFFF7FE6
:102AD00010B5FEF7EDFF00230D4A12184B41002BF5
:102AE00002DA01220B4B52420B4802F00DFA002889
:102AF0000CD001200021404200F052FD002001F0E6
:102B000083FB0028F5D1044802F026FA10BDC04628
:102B100040420F00FFFFFF7F581C0020F8B5CE4653
:102B2000474680B505000C00FEF7C2FF0023344A7B
:102B300012184B41002B02DA0122324B5242324929
:102B40000800884602F0E0F9002803D1C0BCB9466D
:102B5000B046F8BD002001F0F3FA002848D0002666
:102B6000002C41DD294B994613E0A919002001F002
:102B700087FB070001200021404200F011FD0020EA
:102B800001F042FBFEF794FF204BF61903C3B44259
:102B90002ADD002001F094FBA71B0200B84200DDF3
:102BA0003A00002AE1D101200021404200F0F8FC67
:102BB000002001F029FB002001F0C2FA002813D008
:102BC000002001F07DFB0028E1D1FEF771FF4B46AC
:102BD0000F000CCB002184460D4812184B419F4238
:102BE00002D8D4D19445D2D9404602F0B5F9ADE728
:102BF00000200021054B03C3404602F0ADF9A5E7D4
:102C000040420F00FFFFFF7F581C0020A012002051
:102C100020A1070030B5002185B0284802F07CF9DA
:102C200000281CD1264B1A68002A16D0EFF3108119
:102C300072B610680028FCD0BFF35F8F01242148D2
:102C4000596002781B68D2B20470BFF35F8F002016
:102C5000186081F31088002A17D005B030BD01201C
:102C60000021404200F09CFC002001F07FFA0500AA
:102C7000124802F071F9002DEFD0134B1B68002BA6
:102C8000EBD0124A10689847E7E7FEF771FC0400A2
:102C9000FEF70EFFFA220023920012184B41002B80
:102CA00002DA01220A4B52420121029100210191D4
:102CB000084920000091FEF75FFCCEE7581C002079
:102CC000301C0020811C0020B0170020B817002005
:102CD000FFFFFF7FE1290010D02310B51B0684B051
:102CE0001C68FEF745FCFEF745FDA04202D000201F
:102CF00004B010BD284B002100201B7801F0A6FC79
:102D000026480368002B44D00120FEF7C9F9FF23B1
:102D1000234C244920701840FDF778FF20780121CA
:102D2000FDF73EFF0520FDF761FF002824D10822B2
:102D300000211D48FFF7B2FBFEF71AFC0400FEF766
:102D4000B7FEFA220023920012184B41002B02DA40
:102D50000122164B52420121029100210191144996
:102D600020000091FEF708FC0028C0DB114801217B
:102D7000FFF7A8FC0120BBE70120FDF7CFFE010013
:102D80000948FEF7EDF9002205200B49FDF768FF21
:102D9000ECE7FEF7C9F9B7E780540010581C002093
:102DA000801C0020152C0010301C0020FFFFFF7F2E
:102DB000E129001008100020D129001000487047B8
:102DC00090520010004870473C52001010B50400AB
:102DD00016480378002B20D0002C06D1144B154840
:102DE0004380063BFF3B038010BD052C1CD8124BD3
:102DF000A400E4580F480123811C013C04E0013386
:102E00000A800231142B0CD0E25C002AF7D1C022D8
:102E1000DBB25B0092001343E5E7112100F016F8E6
:102E2000DAE7CA239B00DEE70020DDE7681C00200C
:102E300009040000EC1700202452001010B50248CD
:102E400000F0F4F810BDC046481C002030B5012940
:102E500000D1BBE0744B01391A78121114003034E0
:102E6000092A00DDB5E00470012900D1DAE00F2263
:102E70001C78224014003034092A00D9ACE0447098
:102E8000022900D1CEE05A78944612111400303451
:102E9000092A00DDA3E08470032900D1C2E0644662
:102EA0000F22224014003034092A00D99AE0C4705D
:102EB000042900D1B6E09A789446121114003034F7
:102EC000092A00DD91E00471052900D1AAE06446D9
:102ED0000F22224014003034092A00D988E04471BE
:102EE000062900D19EE03025AC46DC7822119444BE
:102EF000092A00DD7FE062468271072900D191E056
:102F00000F22224014003034092A00D977E0C4711E
:102F1000082900D186E03025AC461C792211944462
:102F2000092A00DD6EE062460272092900D179E0CB
:102F30000F22224014003034092A67D844720A292B
:102F400000D16FE03025AC465C7922119444092A07
:102F50005FDC624682720B2964D00F22224014008B
:102F60003034092A59D8C4720C295BD03025AC46BC
:102F70009C7922119444092A02DD0735AC46944419
:102F8000624602730D294DD00F22224014003034C6
:102F9000092A01D93732140044730E2942D0DA7954
:102FA00013111C003034092B01DD37331C008473EE
:102FB0000F2937D00F2313401A003732092B01D8BD
:102FC00030331A00C27310292CD010300023037044
:102FD00030BD3732140046E7373214004FE737323E
:102FE000140058E73732140061E7373214006AE7FB
:102FF0003732140073E70735AC4694447BE7373229
:10300000140084E70735AC4694448CE7373214004B
:1030100094E70735AC4694449BE737321400C472FA
:103020000C29A3D14018D1E7481C002010B588B066
:1030300004000D2200216846FFF730FA0D2200211E
:1030400004A8FFF72BFA6A464B236846137004A9BD
:1030500000230D2201F090FF152108222000694471
:10306000FFF722FA08B010BD7047C0460022014B9E
:103070001A7070477E1C00204B790020FF2B0BD16B
:103080008B79002B08D1CB79012B05D1082A03D9E4
:10309000024B8A7809301A707047C0467E1C0020A7
:1030A0000120704710B5012913D1154953791079C2
:1030B00009781B0203430020994200D010BD5378C9
:1030C000012B08D0022BF9D1642200210020FEF749
:1030D00011FF0120F2E7D178937809021943802388
:1030E0000A005B001A40194206D00A06D20F480AAD
:1030F00003231940FEF786FF01204042F8E7C0464F
:103100007E1C0020004870474C5300109446012359
:1031100010B501290AD152780023012A06D162464E
:103120001179527912020A43072A01D0180010BD02
:10313000A6336146024A00F0EBFE0300F6E7C04604
:10314000A452001001230370004870477053001010
:103150004B780A781B0213438A7810B512041A437D
:10316000CB781B0613439622D200934200D010BDA9
:103170000022012011004042FEF744FFF8B500F0A4
:103180003BF90C23194DFF22AB6705201849FDF7C9
:1031900067FD184C402200212000FFF77FF94027EF
:1031A000002301262121144A66702783A260136040
:1031B00063545F31618445396354104A1049636038
:1031C000E2602787A1620B606362E26201F0B4FEF5
:1031D00080239B052E64EB6490230A4A0120EA5069
:1031E0008022094B5202DA64F8BDC046000011503B
:1031F000C10400202018002084001050000110504D
:103200008000105010D001000020115010B5012195
:103210000520FDF7C5FC10BD10B5002200210248B5
:1032200000F00AF910BDC04640180020044B197088
:10323000002904D080219023024A8902D15070478E
:103240007A1C0020002011500B785B0600D07047DC
:103250004B78052BFBD18A78014B1A60F7E7C04603
:1032600000001150F8B5CE464746CB7880B59B0795
:103270009A0F1000012A58D08C780A794B797F2157
:103280001B022140E50913434A0091462C4E521976
:103290005201B218947001246C40547000245B05F4
:1032A0005B0DD4701383D076CA00012D2CD0254F2E
:1032B000D2198F01BC46B4446746BA601460002935
:1032C0002CD0214AC900891879603F339B09022814
:1032D00032D09A014B461D4C5B1921685B01F618F0
:1032E0001B4B8A18F16022609A4227D8194A83063C
:1032F0004A40134380221206134372681360012070
:10330000C0BCB946B046F8BD134FD2198F01BC46B8
:10331000B4446746BA621460002908D100236D01E5
:1033200075196B600D4BEB60E9E70020E8E7094A8F
:10333000C90089187962C8E7DA01CBE7FEF78AFE8F
:103340002018002084001050040010502C1C002075
:10335000FF0F10500000105080001050000110505E
:1033600010B501F0E9FD10BD7F2010B50840400008
:10337000C90940181100044A400180181A0000F0E1
:103380005BF8012010BDC046201800207F231800E4
:1033900000B5084083B00B4204D14B424B41084A70
:1033A000013393668022C9094000064B4018400152
:1033B0000021C018120101F0C7FD03B000BDC046D6
:1033C00000201150201800207F22130010B50B4060
:1033D0000A4200D110BDC9095B005B1804485B01BB
:1033E000C018002300220349C37001F0ADFDF1E7CE
:1033F00020180020FFF7FFFF80220A4B520410B56F
:103400001A60094B09491A6010000B689843FBD1F8
:103410008022002152010648FFF740F80922054B9F
:103420005A6710BD00E0004000F0004008C00040B6
:103430000000105000001150002310B5C38201336A
:10344000828283760161040001F0AEFD002804D081
:1034500080219023074A8902D150200001F064FDA9
:10346000002802D00123237710BD200001F07CFD4D
:10347000FAE7C046002011507047C0467047C0466A
:1034800000207047002070477047C0467047C04614
:103490007047C0467047C046024B5878431E98415B
:1034A000C0B2704790150020024B18784007C00F3B
:1034B0007047C04690150020F0B5D6464F464646A8
:1034C000C0B52C4B814698461B788A46FF2B4BD1C2
:1034D00000293BD0002154222748FEF7DFFF0022BD
:1034E000264C274B20001A70FDF71EFE254B1C6052
:1034F000254C2000143CFDF725FE200001F098FB30
:10350000224B234D1C60234B002B04D02800FFF7D7
:1035100019FE214B186000242B78204F1E4E0DE021
:10352000336862019B18002B10D05B68002B0DD014
:10353000984701342B78E4B2A34209D3A342EFD8D1
:10354000E31A5B01DB195B68002BF1D100200CE072
:1035500042464B46514648461370FFF70FFE00287F
:10356000F4D04846FFF752FE0120E0BCBA46B1460F
:10357000A846F0BD3C1000209015002088150020C2
:103580007B1C0020E415002034100020E8150020EA
:10359000791C002045310010A81400203854001078
:1035A000F0B5DE4657464E464546E0B5C84B91B0AD
:1035B00003931B78FF2B00D142E1C64BC64E1F0080
:1035C000C64B0DAC0293C64B019335686A69EFF3A5
:1035D000108172B61368002BFCD0BFF35F8FA96116
:1035E0002800210001F05AF96A69AB69BFF35F8FC7
:1035F0000021116083F31088002800D120E1637856
:10360000082BE2D89B00FB589F466368002BDCD058
:10361000A0689847D9E77F222179B04D0A4053002E
:10362000EB189846C809804440460123303005799C
:103630009D430571057903339D430571002A00D12F
:1036400005E14346A74A1B7D1278934200D3F5E07B
:10365000A54A5B011568ED18002D00D1F0E0A368C4
:1036600062792078AD69A847AFE7A04B1A78002AA5
:1036700000D1E5E01A78013A1A701B78002BA4D12A
:103680000122964D01212B78042013432B70342303
:10369000EA5C8A43EA54EA5C8243EA540133EA5C16
:1036A0008A43EA54EA5C8243EA54237800209B462A
:1036B00000F088FC602223791A40602A00D1F1E0F2
:1036C000402A00D1F7E0DB06DB0E012B00D115E12B
:1036D000022B00D1CAE0002B00D0E3E0202A00D169
:1036E00011E2002A00D0DDE06379092B00D9D9E08E
:1036F0007F4A9B00D3589F46784D2B78DB0700D438
:1037000063E7FFF7C7FE60E7029BDB78DB0700D4C7
:103710005BE76068FFF7B2FE57E7704D2B78DB0779
:1037200000D452E728780007C00FFFF7B1FE4CE73E
:1037300023786B4A994693466A4B6B4A9846924661
:103740003A00002547461B78B0464E4691460EE0AB
:1037500053461B686A019B18002B00D17DE0DB6893
:103760003000984701353B78EDB2AB420CD3AB4209
:10377000EED8EB1A5B015B44DB68300098470135FB
:103780003B78EDB2AB42F2D2544D542200212800D6
:10379000FEF784FE1022FF21281DFEF77FFE280081
:1037A0002022FF21143046464F46FEF777FE00F0F8
:1037B000FFFB2379AB7008E723784B4A9946494BC6
:1037C000924698463200BB464E46002547469146F3
:1037D0001B780DE053461B686A019B18002B40D0F4
:1037E000DB683000984701353B78EDB2AB420DD332
:1037F0009D42EFD3019AEB1A5B01D318DB683000CE
:10380000984701353B78EDB2AB42F1D2029D54228C
:1038100000212800FEF742FE1022FF213548FEF766
:103820003DFE28002022FF2114304E465F46FEF761
:1038300035FE00F0BDFBFFF729FEC6E6934213D02C
:1038400011B0F0BCBB46B246A946A046F0BDA36885
:103850006279207800F0CAFBB7E646464F461F4D16
:10386000A5E74E465F46E4E71D4DF8E67023217A52
:103870000B4217D1C80982460F330B405B009846B4
:103880001848EB1853441B7D0078834264D21648D5
:103890005B01006881469944002A00D155E14B46FE
:1038A000002B61D120780021FFF770FD8021207866
:1038B000FFF76CFD89E6104800F084FB01215846B3
:1038C0000EAAFFF723FC002800D07EE6EAE7C046F8
:1038D0003C10002090530010E815002090150020A7
:1038E00038540010791C0020A81400207B1C0020F4
:1038F000B4530010941500200D310010237A228952
:103900000F2BCFD8FF231340D14AEB181B79127825
:10391000934234D3C6D1CF4D686900F053FB0121E7
:1039200058466B690EAA9847002800D04DE66022E1
:10393000150023791D401A42B4D163790A3B012B4B
:10394000B0D800F03FFB63790A2B00D18AE15846DA
:103950000EA900F0C7FA38E6834200D0F0E0BD4B74
:103960009946002A00D1F0E04B46586900F02AFB46
:103970004B46012158465B690EAA9847A3E7B64A11
:103980005B011568ED18002DC6D18BE7A379994628
:103990006B789945DBD06B78002B00D02CE14B463F
:1039A0006B70002B00D124E148460138C0B2FFF70C
:1039B00009FA002800D174E143780793022B00D064
:1039C0006FE10122C179B1468B11491113400A40C0
:1039D000302112015B0113432A78A8468A4313431E
:1039E0002B7009239A4682445646BA46C378827899
:1039F0001B021343C3180593954B0493954B0893EF
:103A0000954B0993954B0A93059BB34200D84BE124
:103A1000737801220B2B03D13378F278F618737880
:103A2000042B00D03AE1059B00279B1B9BB2069319
:103A3000049B0B921D7819E0099A7B011568ED181B
:103A4000002D00D12AE1310058462B69069A98478B
:103A50008446082803D9069A824200D30BE1049BCE
:103A600001371D78FFB2BD4200D217E1BD42E3D855
:103A7000089B7D1B6D015D19E5E76B780CAA02328E
:103A80001370584601230EA900F042FA9DE5E08824
:103A9000030AC0B20F2B00D904E771499A008A5873
:103AA00097460EA800F094FA5846A179FFF7B4FBA8
:103AB00002222B7813432B7087E5E388012B00D07B
:103AC000F0E608222B78584693430EA92B7000F09D
:103AD00009FA7AE5022029780CAB9A1C8B06890832
:103AE000DB0F01400B431380584602230EA900F060
:103AF0000FFA6AE5E388012B00D0D3E608222B7881
:103B000013432B7023E7237A22890F2B00D9C9E6B0
:103B1000FF2313404E4AEB181B791278934228D2A8
:103B20004D4A5B011568ED18002D00D1BAE66869B1
:103B300000F048FA012158466B690EAA9847C2E680
:103B4000002A00D0AEE600239946627902201300D5
:103B500004928343012B11D0002A00D0A2E62B004F
:103B60004344534430331B790CAA9B07DB0F0232CA
:103B7000B9E7934200D095E6364DD8E7E388002BAD
:103B800012D1039B1878049B012B23D0FFF7FEFB77
:103B900043460221EB18534430331A790A4301217A
:103BA0001A711A790A431A714B46002B00D10CE5A1
:103BB000586900F007FA4B4601215B690EAA584686
:103BC0009847002000F0FEF93523EB5CDB0700D5B9
:103BD000FBE4BCE6FFF7F8FB43460221EB18534435
:103BE00030331A798A431A711A7904998A431A71FF
:103BF000DAE7FFF74BFCAAE600215846FFF716FB71
:103C00005846FFF7ADFB00229246124AAB78059268
:103C1000114A049306922A000D4B55469846924647
:103C20001B780EE0069B6A011B689B18002B54D082
:103C3000DB6858469847434601351B78EDB2AB42E6
:103C400037D3AB42EED8059AEB1A5B01D318EFE7F6
:103C5000791C002038540010A8140020A41500205E
:103C6000DC5300100CAB9A1C584601230EA91570AA
:103C700000F04EF9A9E40B9A012A4CD0002A3CD05E
:103C80000023B07804E00133DBB20F71934234D2E9
:103C9000C118C9B241440D79FF2DF4D04E464546B6
:103CA000574600236B70FDE54E465746FFF7ECFB89
:103CB0004DE65546542200212800FEF7EFFB102266
:103CC000FF21281DFEF7EAFB28002022FF211430E7
:103CD000FEF7E4FB049BAB7061E65546FAE7FFF79D
:103CE00011FA021E00D1DDE5D37891781B020B4357
:103CF00058460EA900F00CF9E5E565463B00310099
:103D00002A000A9800F046FD049B76191B78BB42F6
:103D100000D379E6C2E7174B29699942B0D1079AD7
:103D2000AEE7FFF7ADFB021E00D1BBE558461378A6
:103D30000EA900F0EDF8C6E52189FFF747F8021E4D
:103D4000F4D1AFE5022B0FD0FFF79CFB021ECBD1C5
:103D5000A8E5FFF733F8021E00D1A3E51223584669
:103D60000EA900F0D5F8AEE5FFF72CF8021EBBD186
:103D700098E5C046BD430010F0B54F464646D646CE
:103D8000C0B50C0016001F0082B0002A3AD0702384
:103D900098461D4B002599461C4B9A461AE04B4607
:103DA0001B78200001935346997800F0B9FC002855
:103DB0001CD021000198FFF755FA002816D0A378EF
:103DC000DA09012A19D00A9A01351370B54219DAB5
:103DD0002378E4186378052B08D1E3789B079B0FC1
:103DE000BB4203D14246A3781A42D8D0002002B089
:103DF000E0BCBA46B146A846F0BD0B9A0135137037
:103E0000B542E5DB0120F2E73C10002090150020D0
:103E1000702270B58B780C001A4201D0002070BD62
:103E2000064B20001D78064B997800F079FC00289D
:103E3000F4D021002800FFF715FAF0E73C1000202D
:103E4000901500207F20074B10B51A680840CB0959
:103E500034334000C018044B1100C01800F01CFCA3
:103E600010BDC046E4150020901500207F20074BB0
:103E700010B51A680840CB0934334000C018044B11
:103E80001100C01800F030FC10BDC046E415002041
:103E90009015002070B57F24C80984460C400F4857
:103EA00064000419644430342079C00701D500202F
:103EB00070BD0B4801250078844620792843207185
:103EC0006046FFF751FA0028F2D10122237993438B
:103ED00023712379033293432371E8E7901500207F
:103EE0003C10002070B5094C0600082220000D008F
:103EF000FEF7DAFA00238021E360A3602B7830001C
:103F0000994300220023FFF7C5FF70BD7015002004
:103F1000F0B5C646244C170080460822200000B5A4
:103F20000D001E00FEF7C0FA0023A760E381EB79C5
:103F3000AA791B0213431A1CB34200D9321C96B251
:103F4000A281002B0CD0002E15D0002F2AD0402E9D
:103F50001AD8237896B27F2B1BD80021134A0EE083
:103F600080212B780022994340460023FFF792FFDF
:103F700080BCB846F0BD7F230022217899433300EE
:103F80004046FFF787FFF3E74022237896B27F2B66
:103F9000E3D9064C320039002000FEF785FA802173
:103FA0002200ECE70020E3E7701500203015002028
:103FB00010B5142200210248FEF770FA10BDC04669
:103FC00070150020014B18617047C0467015002025
:103FD00010B5054C010008222000FEF765FA002309
:103FE000A360E36010BDC0467015002070B5374C6B
:103FF0001D0023780600DA09C9098A4210D0002082
:10400000002D00D070BD21003000FFF71DF923699D
:10401000002B03D022000321300098470120F1E754
:104020007F2B06D8A0680028ECD02A002849FEF78C
:104030003BFAE289A1685219E38892B24919E281F8
:10404000A160934214D03F2D12D9A389981A051C60
:1040500080B2402828D82078ADB27F2826D8002109
:104060009A4230D01A4A2B003000FFF713FFC9E7FD
:104070002369002B05D02200022130009847002838
:1040800008D0802123780022994330000023FFF7D5
:1040900001FFB7E700213000FFF778F930008021F9
:1040A000FFF774F90120ADE74025D4E79A4207D025
:1040B000074C2A002000FEF7F7F980212200D2E702
:1040C00080210022CFE70022CDE7C04670150020F6
:1040D0003015002070B50400FFF7DEF9002800D18C
:1040E00070BDFFF7E1F90028FAD1C8236343124AF3
:1040F0002500D418E1780029F2D010339E18300042
:1041000000F0B6FB3F28EBD90020E178FFF79AFEDC
:104110000028E5D0300000F0ABFBE1783F2807D95C
:10412000064BEA01D21800204023FFF7B3FED7E781
:104130000020FFF79BFED3E758100020AC140020AE
:1041400010B50400FFF7A8F9002801D1002010BD28
:10415000FFF7AAF90028F9D1C8226243024B0130C7
:104160009B181B791840F2E758100020C82310B59F
:1041700043430248181800F05DFB10BD6810002092
:10418000F8B5C82343431D4D1033EE1880230400B7
:104190005B029A4200D31A4A300092B200F0CCFB84
:1041A0000700FFF779F9002801D13800F8BDFFF7C3
:1041B0007BF90028F9D1C8236343ED18EB78002B75
:1041C000F3D0300000F054FB3F28EED90020E9780E
:1041D000FFF738FE0028E8D0300000F049FBE9780E
:1041E0003F2807D9074BE201D21800204023FFF7F0
:1041F00051FEDAE70020FFF739FED6E7581000201D
:10420000FFFF0000AC140020F8B50400FFF744F9EC
:10421000002801D10020F8BDFFF746F90028F9D1A8
:10422000C82325005D432B00134E2433F7183800B4
:1042300000F000FB0028EDD075190020A978FFF7E9
:1042400001FE0028E6D00D4AE3019C18210040221F
:10425000380000F071FBA9780300051E07D022008A
:104260000020FFF717FE0028D4D02800D3E7002055
:10427000FFF7FCFDCEE7C04658100020EC140020EC
:1042800070B5C82444430C4B0500E41880235B023E
:104290009A4200D3094A200092B200F015FC0600B1
:1042A000200000F0C7FA3F2801D8300070BD280078
:1042B000FFF7AAFFF9E7C0467C100020FFFF0000CF
:1042C000C82310B543430248181800F0D1FA10BDB6
:1042D0007C100020F0B50025184C83B0C8220021C6
:1042E0002000FEF7DBF8164B21001D70FF236371E1
:1042F000E1235B02A360200008234022A37338312E
:104300000095073B103000F05FFA270001232100E1
:1043100020002600402278310093B837243000F086
:1043200053FAC0363800FCF7FFFE3000FCF7FCFE05
:10433000E56127622663656303B0F0BD5810002075
:104340002C1500200A4B196B1A6A00290CD0002A80
:1043500007D00022DA615A631A6300221A62012030
:1043600070475A631A63FAE7002AF8D0D961F4E774
:104370005810002070B5052200210D48FEF78EF878
:104380000C4D2B78DA0707D50B4C9B070CD5012178
:10439000200000F06DFC70BD0548103000F048FCB6
:1043A0002B78054C9B07F2D4200000F041FCEEE78F
:1043B000581000202C1500207C100020F0B54B79FF
:1043C000070083B0022B02D18B79022B03D000248B
:1043D000200003B0F0BD214B1E009B78002BF6D1CE
:1043E0008B78092433700D784D196B78242B07D006
:1043F0000CE02B78ED181C196B78A4B2242B05D196
:10440000A242F6D20020FFF765FEE1E71A00052B75
:1044100015D0042AF6D16B790A2BF3D1104B2E78E4
:1044200001930133009338000223A919023AFFF7E0
:10443000A3FC0028CBD00E34A419A4B2E2E72900D3
:104440003800FFF7E5FC0028C1D0AB7873702B78FB
:104450001C19ED186A78A4B2DBE7C046581000209A
:104460005A10002060238C461100127870B513405A
:104470000022202B08D1324C4B7926000D7924786C
:104480001B022B439C4201D0100070BD4B78222BA5
:104490001CD008D8202B39D0212BF5D16346012B15
:1044A00043D00122F0E7232BEED16346012B42D00B
:1044B000032BF6D1234B002BF3D08B78C978002047
:1044C0000902194300E000BF0122DDE76346012B2A
:1044D00031D0032BE5D10125CB788A781B02134319
:1044E0001C001D4033000121243318006940347141
:1044F00000F0BEFB144B002BD3D0012362081A40FE
:104500002900002000E000BF0122BDE76346012B27
:104510000BD0032BC5D10D4B002BC2D03100002096
:104520000831FEF715FE0122AEE7094A0723FFF71F
:10453000EFFC0122A8E7FFF7D5FC0122A4E7C04663
:104540005810002000000000000000005131001051
:1045500060100020F8B54746CE4680B5344C1F00A9
:10456000E37880460D008B423BD0A37800208B423D
:1045700011D0C0BCB946B046F8BD2E4B002B04D0BC
:104580002D4800F06DF900284FD00020FFF7A2FD64
:10459000A378AB420AD1294B002B02D0002000E0C7
:1045A00000BF0020FFF730FE002801D00120E0E727
:1045B000234C200000F03EF90028F7D1002FF5D061
:1045C000BB06F3D1243C4046A178FFF73BFC002812
:1045D000ECD0002300224046A178FFF75BFC0120CD
:1045E000C7E7184E14483100BAB200F06DFA164B06
:1045F000002BC2D06379FF2BBFD0002FBDD0BC46AB
:10460000B444E14603E001364E45B6D063793278D2
:104610009A42F8D1084800F023F90028F3D1064B5C
:10462000103B597900E000BFEDE700E000BFACE7C8
:10463000581000200000000068100020000000005A
:104640007C100020AC1400200000000000B5030026
:1046500083B0002910D00020012B07D80A78002A47
:1046600004D00C48C2540120012A01D003B000BD7F
:104670001800FEF721FFF9E701236A46002001A98F
:104680009380FEF719FF0028F0D00122014B1A7029
:10469000ECE7C0468415002070B5040023780800BC
:1046A000DB070E00DD0F002B16D123785B0701D549
:1046B000280070BD0121494200F066FC2378DB0729
:1046C000DD0F002B0AD123785B0708D4042223785E
:1046D00001251343237002E00025E9E7002530009F
:1046E00000F03AFCE4E7C04670B50D00012104007B
:1046F0004942280000F048FC23785B07DE0F002BBE
:1047000004DB280000F028FC300070BD2378DB07B4
:1047100004D40422237893432370F2E70026F0E7C1
:10472000437902791B021343C2785B0592075B0D44
:10473000920F022A1AD0032A0BD00020012A07D197
:1047400002394A425141104A891899424041C0B247
:10475000704702394A1E91410C4A49421140802259
:104760000020D200891899424041F1E7022904D083
:10477000002040229A424041EAE7054A9818434205
:104780005841C0B2E4E7C046FF03000040FCFFFF11
:1047900000FEFFFF8446881830B51C00814206D217
:1047A0004A78052A04D00A7889188842F8D830BD9A
:1047B0007F228B781A4052006244DB09D4540A7875
:1047C00089188842ECD8F2E7F0B5C64600B598469D
:1047D0006B461E7E802304000F0015001B029A42C8
:1047E00026D8C068002803D00121494200F0CCFB44
:1047F0002069002803D00121494200F0C5FB424650
:104800005204F303520C1343E3800023E0686381F6
:104810002760A5802381002801D000F09DFB20693E
:10482000002801D000F098FB012080BCB846F0BD04
:104830000020FAE7038941899C4682889BB288B2AE
:104840008C4507D31B1A9BB2101C9A4200D9181C26
:1048500080B270475100091A5B189BB2F4E7C0465A
:1048600003894089181A43425841C0B27047C04674
:10487000038941899C4682889BB288B28C4507D3C4
:104880001B1A9BB200209A4201D9D21A90B27047EB
:104890005100091A5B189BB2F4E7C04670B50400DA
:1048A00000690D00002803D00121494200F06CFB93
:1048B000238962899C4698B291B2A388944532D3E9
:1048C000421A92B2002A27D0934208D298422FD39C
:1048D000C01A81B261818B4203D8C91A89B28B4256
:1048E000FBD9E28823685204520C5143280059181E
:1048F000FDF7DAFD618901254A1C92B2A388914235
:104900000DD900225B00D21A20696281002801D0F3
:1049100000F022FB280070BD0025628992B25B0086
:104920009A42F1DBEFE75A00521A821892B2C9E7B5
:10493000C01881B26181CEE7F0B54646D6464F46F3
:10494000C0B5060000698A46904682B0002803D0B0
:104950000121494200F018FB31897289B5888BB278
:1049600094B2914255D31F1BBFB2002F4BD0BD4212
:1049700005D2AB4252D25B199CB22F0074814346E0
:10498000B8453ED89FB2A54203D8641BA4B2A54245
:10499000FBD9F28831685204500C020062432B1B91
:1049A0009BB28918019002009F4225D943439BB2D4
:1049B0001A0050469946FDF777FD5046019A7D1B37
:1049C0006419544331684844A2B2FDF76DFD718902
:1049D000B588CB199BB26A00994216D99B1A3069E7
:1049E0007381002801D000F0B7FA380002B0E0BCB3
:1049F000BA46B146A846F0BD50467A43FDF754FD8D
:104A0000E5E73B1CBEE773899BB26A009342E6DB95
:104A1000E4E76F003F1BDF19BFB2A6E75B1B9CB248
:104A2000ABE7C046F8B50400C0680F00002803D00B
:104A30000121494200F0A8FA258920896189A288CC
:104A4000ADB283B28EB2884228D39B1B9BB29A42EE
:104A500009D8E679F60906D1E068002801D000F00F
:104A60007BFA3000F8BD2B0095421CD39B1A9BB2F9
:104A70009342FBD2E28820685204520C534339001F
:104A8000C018FDF711FD6B1C9BB2A2889D4216D980
:104A9000002352009B1A01262381DDE75100891B68
:104AA0005B189BB2D3E7E28820685204520C534350
:104AB0003900C018FDF7F8FC0135A288ABB25200EE
:104AC0009342E8DBE6E7C046F0B54E464546DE4693
:104AD0005746E0B589460500160083B0002A6BD022
:104AE000C068002803D00121494200F04DFA2F8907
:104AF000EA79BBB298466B89AF889BB2D2093DD1A7
:104B0000984562D27A00D31A43449BB2BB4261D229
:104B1000FB1A1A1C9BB2B34200D9321C96B2F31B8B
:104B200001934346F3189BB29B46EA884446B84536
:104B300003D3E41BA4B2BC42FBD252043B1B570C70
:104B40003A00624328689BB28018B34256D33A00B9
:104B500049467243FDF7A8FCAB885B00D84501D8F5
:104B60009B4502DB5A46D31A9B465B4637002B8196
:104B7000E868002821D000F0EFF91EE0BE422BD2F9
:104B800098454CD34246D21A92B27900F01B921942
:104B900001908A42C5DBDA1992B29346921B92B217
:104BA0009046934240D94346591A8BB29846F3181F
:104BB0009BB29B46EA88B9E70027380003B0F0BCF7
:104BC000BB46B246A946A046F0BD4246D31A9BB2A8
:104BD000BB429DD30027CBE7002FC9D0CC46EA8843
:104BE000F61B5104490C714398468C44D919002393
:104BF00089B2E1468B463E00019397E77B439BB227
:104C00001A0049469A46FDF74FFC4946019B286821
:104C1000E2187A43514492B2FDF746FC9CE77900D2
:104C2000CA1A424492B2B1E79142BCDDC2E7C04623
:104C300010B50400C068002803D00121494200F0EB
:104C4000A3F92069002803D00121494200F09CF912
:104C50000023E06863812381002801D000F07CF903
:104C60002069002801D000F077F9012010BDC0466E
:104C700070B50400C0680D00002803D0012149422E
:104C800000F082F92069002803D00121494200F098
:104C90007BF97F21E279EB011140E0681943E17172
:104CA000002801D000F058F92069002801D000F058
:104CB00053F9012070BDC046F0B54E464546DE466C
:104CC00057468446E0B585B098460EAB91461A78B3
:104CD0006346080019680023CB6601334860CB6641
:104CE00043460392002B4EDD01275E1E634680245F
:104CF00057401A79A24680254C4692020020102384
:104D00009146AD000194841B62426241019C3A408D
:104D1000245C520222434C462243019C0A614A6BA6
:104D20001342FCD052468A5801949146002A10D171
:104D3000B04223D00022013091468045E3D1634642
:104D4000039A1A7105B0F0BCBB46B246A946A0460C
:104D5000F0BD4A6D012293464A6B2A42FCD00A6E8E
:104D60005A460194002AE5D04C46002C03D0092372
:104D70002340082BE3D001204042E0E7039A002AB9
:104D8000D8D19346E8E70020D9E7C046F0B5D6462B
:104D90004F4646468246C0B505200C00FDF74CF84C
:104DA0000500600821004019FDF77EFA47003F1812
:104DB000060005213800FDF777FAA0461C4B321A91
:104DC000040068009146401998452BD81949FDF711
:104DD0006BFA0130534600221B68DA661968043208
:104DE000514002320A408021490159180A604A465E
:104DF000DA6101221C624F2F00D92209A0215A50EA
:104E0000DA6F310050400C4A00049A18000C106010
:104E100001222800DA66FDF747FAE0BCBA46B1463F
:104E2000A846F0BD0549FDF73FFA0130D2E7C0467C
:104E30003F420F00809698007C10000040787D0172
:104E4000104A70B5821A531E9A41072352429A4360
:104E50000D4B10321A600D4B0D4C1A601500236873
:104E60009D432B1EFAD166240268FF340571D56676
:104E70001460633C8833FF3CD5639563D450FFF7DF
:104E800085FF70BD4010002000E0004000F00040B1
:104E900008C0004010B582B06C46247C0094FFF737
:104EA0000BFF02B010BDC046030084469B070BD029
:104EB0000300032102E001330B4206D01A78002AD6
:104EC000F9D16246981A7047030019680C4A0D48D8
:104ED0008A188A4302420FD15968094A04338A1852
:104EE0008A43024208D15968054A04338A188A4322
:104EF0000242F1D000E001331A78002AFBD1E0E74A
:104F0000FFFEFEFE8080808001B40248844601BC22
:104F1000604700BF6501002001B40248844601BC1F
:104F2000604700BFC100002001B40248844601BCB4
:104F3000604700BFB10B002001B40248844601BCA9
:104F4000604700BFD103002001B40248844601BC81
:104F5000604700BFED0B002001B40248844601BC4D
:104F6000604700BFD501002001B40248844601BC5F
:104F7000604700BF3D0C002001B40248844601BCDC
:104F8000604700BF8902002001B40248844601BC8A
:104F9000604700BF9901002001B40248844601BC6B
:104FA000604700BFB90E002001B40248844601BC2E
:104FB000604700BF890B002089200010B520001039
:104FC000992200108D240010F5220010F923001002
:104FD000C1210010D1200010F12000100521001087
:104FE000D91000100D21001099140010512000104C
:084FF000590B00103D2E0010CA
:104FF80048656C6C6F2C20525032303430210000E0
:105008003136783220493243204C434400000000B6
:105018000A2A2A2A2050414E4943202A2A2A0A00CD
:105028004E6F207370696E6C6F636B73206172656D
:1050380020617661696C61626C6500004E6F207555
:1050480073657220495251732061726520617661DF
:10505800696C61626C6500004861726477617265B1
:1050680020616C61726D20256420616C72656164D9
:105078007920636C61696D65640000004861726441
:10508800206173736572740052656C6561736500A5
:10509800626F6F74325F77323571303830000000DC
:1050A800322E332E300000007069636F000000005C
:1050B800313678322D4932432D4C43442D727032AB
:1050C80030343000417567202036203230323600C7
:1050D8005541525420737464696E0000554152540E
:1050E800207374646F75740055415254207374644E
:1050F800696E202F207374646F75740055534220B5
:10510800737464696E202F207374646F7574000063
:1051180052617370626572727920506900000000F4
:105128005069636F00000000426F6172642043445D
:10513800430000005265736574000000556E686195
:105148006E646C65642049525120307825780A00D5
:10515800657020253032582077617320616C726544
:1051680061647920617661696C61626C6500000038
:1051780043616E277420636F6E74696E756520785D
:10518800666572206F6E20696E616374697665204A
:10519800657020253032580000400000060052504B
:1051A800D3F075429050001006005250E182887F7B
:1051B8009850001006005250ABB36053A85000102E
:1051C80006005250BBFF3CB6B050001006005250CB
:1051D800861C0302B8500010060052505422A29DAB
:1051E800CC50001005005250DE65F4681C640010B5
:1051F8000D0A00000600525053B4F4A1F0500010FC
:10520800080052501200000008005250921000008E
:105218000600525053B4F4A10451001000000000DD
:105228001851001028510010681C0020305100103F
:105238003C51001009025400030100807D080B0056
:105248000202020000090400000102020004052411
:10525800002001052401000104240206052406009B
:10526800010705810308001009040100020A000073
:1052780000070502024000000705820240000009FD
:1052880004020000FF00010512011002EF020140B4
:105298008A2E0A0000010102030100000A00000032
:1052A80000000306A6000800020002009C0014008B
:1052B800030057494E55534200000000000000000B
:1052C800000080000400010028004400650076000A
:1052D80069006300650049006E0074006500720093
:1052E80066006100630065004700550049004400FE
:1052F80000004E007B006200630037003300390075
:105308003800630031002D0037003300630064006B
:105318002D0034006300620037002D00390038008A
:10532800620038002D003900310033006100380078
:1053380066006300610037006200660036007D0089
:1053480000000000050F2100011C100500DF60DDD2
:10535800D88945C74C9CD2659D9E648A9F000003EE
:1053680006A60001000000000000000069300010DF
:10537800000000006D30001079300010A5300010DA
:10538800A130001000000000CA35001030370010AE
:10539800B8370010083700101A370010F836001018
:1053A8006A360010163600100A360010D43A00107B
:1053B800BA3A0010A4380010F43A0010A4380010CB
:1053C800A23A00108E3A0010A43800107A3A001061
:1053D8008C390010A4380010523D0010443D0010D4
:1053E800383D0010A4380010A4380010223D0010E9
:1053F800443D0010A4380010A4380010A438001050
:10540800A4380010A4380010A4380010A4380010E4
:10541800DE3C0010080D0020080D0020520D002071
:10542800720D0020B20D0020C40D0020000D0020D8
:1054380000000000D54200104543001075430010DD
:10544800BD430010654400105545001000000000E1
:10545800A4510010B0510010BC510010C8510010E8
:10546800D4510010E0510010EC51001010520010FF
:0C54780008520010FC51001018520010E7
:1054840003000068EFF3108C72B60268002AFCD0A7
:10549400BFF35F8F04229A56002A0BDB002900D049
:1054A4000A6000201B68BFF35F8F00221A608CF330
:1054B40010887047D0221206126801201A71F1E791
:1054C400F0B51F00D023C6461B061B680400160057
:1054D4009846002500B50AE0BFF35F8F156081F39D
:1054E40010883000390000F0F3FE002818D122683B
:1054F400EFF3108172B61368002BFCD0BFF35F8FFB
:10550400237922687F2BE7D943462371BFF35F8F4A
:105514000023136081F31088012080BCB846F0BDDD
:105524000020FAE770B582B001A9060014001D003E
:10553400FFF7A6FF002807D1D0221206019B12789C
:105544005BB252B2934201D102B070BD22002B0073
:105554003000FFF7B5FFF7E7F8B50E00070000F0DD
:10556400BFFEFA2204000D00002392003000002147
:1055740000F086FE22002B0012184B41002B02DAA9
:105584000122034B52423800FFF79AFFF8BDC04690
:10559400FFFFFF7F0268EFF3108172B61368002BE0
:1055A400FCD0BFF35F8FFF2303710368BFF35F8FEA
:1055B40000221A6081F3108840BF7047084B9C4654
:1055C4001B78002B0BD18023064807495B051A681A
:1055D400C25004338B42FAD10123624613707047E0
:1055E4007C1C0020AC1600100001001010B5014B0B
:1055F400984710BDAD160020084B5A6842609A685F
:105604008260DA68C2601A6902615A6942619B6900
:105614008361A0235B051B680360704700000240A0
:105624004268084B5A6082689A60C268DA6002690C
:105634001A6142695A6182699A61A02302685B0512
:105644001A60704700000240F0B5D6464F46464601
:105654000023C0B5182788B01E0081460D00988A23
:1056640046493B88140098473B8880464449B08AA1
:105674009847002343490600988A3B889847824606
:10568400FFF79CFF01A8FFF7B7FFC047B0473E4BA9
:1056940021001A6880239B005340C02292001340CB
:1056A4003A4A1360002C1CD00823C0209C464005B5
:1056B400163F6246836A1A401F4239D0631A002992
:1056C4002BD1002A0BD1002C0BD0C0230822022698
:1056D4005B059B6A1A401E4242D0002AF5D0002C7A
:1056E40030D1294B1A68C0239B009343274A136087
:1056F400D047FFF77BFF01A8FFF792FF08B0E0BC9B
:10570400BA46B146A846F0BD002C2BD1C0225205A2
:10571400966A08223240B6072BD50D2B19D9002AD8
:10572400F2D1C0225205966A08223240B607F4D458
:10573400002A04D10B002343002BBAD1D1E70B007C
:10574400002CF9D0036E013C2B70230001350B4370
:10575400F2E74B461B780139036601239944E7E7D6
:105764000021E5E7C0235B051B6E013C2B7001356E
:105774009FE70B00A242DFD1DCE7C04649460000A8
:1057840045580000464300000C8001400C90014045
:105794000022154B10B59A60DA601A615A619A6159
:1057A400DA611A625A629A62DA621A635A639A6313
:1057B400DA631A645A649A64DA641A655A659A65F3
:1057C400DA651A665A669A66DA661A675A679A67D3
:1057D400DA67F03292000021044800F089FD044B9E
:1057E400044A1A6010BDC046000010506018002022
:1057F4002C1C002080011050F0B54746CE4680B5E1
:105804001C4B00249F6D012685B0002F1BD01A4B22
:1058140098461A4B994604E00134E4B27600202CF1
:1058240011D03E42F8D043469E65012365086D00C1
:10583400A343ED186D014D44280000F013FC00282B
:1058440006D1B743E8D105B0C0BCB946B046F0BDF7
:10585400EB8AE0210393002301A8AA78C900018000
:1058640001210271437100F01DFC280000F098FB37
:10587400E7E7C04600001150003011502018002006
:105884009823C64AF0B5D55880232E009B021024D5
:1058940085B01E401D4274D0C14BC24C9A6AC24BA3
:1058A40000261A603B23E35C022B00D14BE17B23EF
:1058B400E35C022B00D1EFE0BB23E35C022B00D1BD
:1058C400F6E0FB23E35C022B00D1FDE03C23FF3335
:1058D400E35C022B00D129E17C23FF33E35C022B40
:1058E40000D10AE1BC23FF33E35C022B00D13BE18E
:1058F400FC23FF33E35C022B00D1F1E0AB4BE35C10
:10590400022B00D170E1AA4BE35C022B00D101E130
:10591400A84BE35C022B00D171E1A74BE35C022BA3
:1059240000D12EE1A54BE35C022B00D19CE1A44BFA
:10593400E35C022B00D16DE1A24BE35C022B00D1AE
:105944009DE1A14BE35C022B00D17BE1002E08D149
:105954009E4B1B78002B04D180219D4A90338902F1
:10596400D150C02269468D4B92009B6C80265B050A
:105974008A805B0D012101A8029300F093FB954CF2
:10598400B602EB0600D57BE080235B021D422FD0DC
:105994000224844F1E43BB7E002B14D000F080FCF5
:1059A400012800D970E0C02200213800920100F0E3
:1059B400FDFA380000F0F4FA00F072FC012802D974
:1059C400834B5C661C660123FB702037012C20D1BD
:1059D400C0236A46DB0093807F4A02AB03CA03C339
:1059E400012101A800F05EFB8022794B92021A6526
:1059F40080235B011D420ED18023DB011D4221D196
:105A040080231B021D422DD1AE4200D0BEE105B061
:105A1400F0BD0124BFE700241E43604B1C60FFF768
:105A2400B7FE80236A465B0093801472012101A8AB
:105A340000F038FB8022664B12031A658023DB01D9
:105A44001D42DDD01E4380236A46DB009380012182
:105A540001A800F027FB10225D4B1A6580231B026E
:105A64001D42D1D01E43A0236A46DB00938001214E
:105A740001A800F017FB8022554B12011A65C3E7F9
:105A8400FFF7BAFE26007FE7544B444A1C66536E68
:105A94002340A342FBD186E77833E75C002F00D193
:105AA4000AE70233E25C002A00D00DE13E0003E77E
:105AB400B833E75C002F00D103E70233E25C002A2D
:105AC40000D0F9E03E00FCE6F833E75C002F00D19B
